S00B000042434D2E7372656347
S11300000C942A000C9447000C9447000C9447006D
S11300100C9447000C9447000C9447000C94470040
S11300200C9447000C9447000C9447000C94470030
S11300300C9447000C943C020C9447000C9422024C
S11300400C9447000C9447000C9447000C94470010
S11300500C94470011241FBECFE5D8E0DEBFCDBF0E
S113006010E0A0E6B0E0E2E5FBE002C005900D92EE
S1130070AE36B107D9F720E0AEE6B0E001C01D927C
S1130080AF39B207E1F70E94DF010C94A7050C9485
S11300900000CF93DF93CDB7DEB71092600000006D
S11300A0DF91CF9108950F931F93CF93DF93CDB733
S11300B0DEB780916E008F5F80936E008091710037
S11300C0082F10E00E949303282FC80186579F4FE2
S11300D0FC012083809171008F5F80937100000088
S11300E0DF91CF911F910F910895CF93DF93CDB7F7
S11300F0DEB789E490E00E94FC0183E590E00E9471
S11301000F0281E690E00E946D0280E0DF91CF91C2
S11301100895CF93DF9300D000D0CDB7DEB78983A5
S11301207B836A834C838981809381008A819B814C
S113013090938300809382008C81882F90E0909329
S113014088008093870080E00F900F900F900F90AD
S1130150DF91CF910895CF93DF931F92CDB7DEB790
S1130160198290916F0080916E00981708F022C157
S113017080916F008F5F80936F0080916F0081305A
S113018019F41092850016C180916F00882309F438
S113019011C190916F0080916E00891708F40AC113
S11301A080916F008230C1F580916F00882F90E0BC
S11301B0019786579F4FFC01908180918100981789
S11301C0D1F4809182009091830020918100FC0100
S11301D020838091820090918300FC0180810E94A1
S11301E06D03809182009091830001969093830027
S11301F080938200DFC080916F00882F90E0019788
S113020086579F4FFC01908180918100981709F4D3
S1130210D1C081E08983CEC080916F00833009F022
S113022043C080916F00882F90E0019786579F4FBD
S1130230FC018081282F30E0809187009091880014
S113024082179307E0F080918200909183002091BF
S1130250870030918800FC01208380918200909176
S11302608300FC0180810E946D0380918200909143
S11302708300019690938300809382009BC08091B9
S11302806F00882F90E086579F4FFC018081282FB4
S113029030E080918700909188008217930708F0DE
S11302A089C081E0898386C080917000282F30E066
S11302B080918700909188002817390768F580910C
S11302C082009091830020916F00222F30E0215012
S11302D0310926573F4FF9012081FC012083809189
S11302E08200909183000196909383008093820012
S11302F0809170008F5F8093700080916F00882FD1
S113030090E0019786579F4FFC0180819091840073
S1130310890F809384004EC080917000282F30E0B4
S113032080918700909188002817390709F042C00E
S113033080916F00882F90E0019786579F4FFC01B2
S1130340908180918400981739F580918200909172
S1130350830020916F00222F30E02150310926576D
S11303603F4FF9012081FC01208388E390E028E3DA
S113037030E0F90120812061FC01208381E0809339
S113038085008FE590E02FE530E0F90120812F779B
S1130390FC01208319820EC080916F00882F90E0A9
S11303A086579F4FFC01908180918400981711F02B
S11303B081E0898389810F90DF91CF910895CF9354
S11303C0DF93CDB7DEB70E94750045E062E770E0C9
S11303D081E00E9489008FE590E02FE530E0F9018B
S11303E020812068FC01208387E390E02FEFFC014B
S11303F020830E94AB00FDCFCF93DF9300D0CDB715
S1130400DEB79A83898389819A8190937E00809351
S11304107D0000000F900F90DF91CF910895CF934E
S1130420DF9300D0CDB7DEB79A83898389819A811F
S11304309093800080937F0000000F900F90DF91D5
S1130440CF9108951F920F9200905F000F92112494
S11304508F93CF93DF93CDB7DEB780917C008F5F0E
S113046080937C000000DF91CF918F910F900092D8
S11304705F000F901F9018951F920F9200905F00DD
S11304800F9211242F933F934F935F936F937F9316
S11304908F939F93AF93BF93EF93FF93CF93DF9388
S11304A0CDB7DEB780917F0090918000FC01099563
S11304B00000DF91CF91FF91EF91BF91AF919F9198
S11304C08F917F916F915F914F913F912F910F90F9
S11304D000925F000F901F901895CF92DF92EF92D9
S11304E0FF92CF93DF9300D000D01F92CDB7DEB739
S11304F09D838C838C819D81FC0180859185A2855F
S1130500B385BC01CD010E94AC046B017C018C81DC
S11305109D81FC0180819181A281B381BC01CD01C7
S11305200E94AC04DC01CB0120E030E040E851E45F
S1130530BC01CD010E943A05DC01CB019C01AD0157
S1130540C701B6010E940B04DC01CB0120E030E0BE
S113055040E85FE3BC01CD010E949E03DC01CB01B6
S1130560BC01CD010E947D04DC01CB019B838A8305
S113057080E889838C819D81FC01878180939E0022
S11305808C819D81FC018781813091F48AE290E025
S11305902AE230E0F90120812068FC0120838AE20C
S11305A090E02AE230E0F90120812064FC012083FC
S11305B08AE290E02AE230E0F90120812860FC011F
S11305C020838AE290E02AE230E0F9012081206170
S11305D0FC0120838C819D81FC018581882F90E022
S11305E08130910561F08230910581F0892B91F47D
S11305F089818F7D898389818F7E89830DC08981DB
S11306008062898389818061898306C0898180624F
S1130610898302C080E055C08C819D81FC01868164
S1130620882F90E0009719F0019729F008C089817C
S1130630877F898306C089818860898302C080E0BE
S113064040C08C819D81FC018481882F90E08130A1
S1130650910599F0823091051CF4892B39F01CC066
S11306608230910571F0039781F016C089818D7FE6
S1130670898389818B7F898311C089818260898381
S11306800DC089818460898309C0898182608983DE
S113069089818460898302C080E013C080E490E093
S11306A02981FC01208389E290E02A81FC012083D6
S11306B080E490E02A813B81232F3327FC012083AF
S11306C081E00F900F900F900F900F90DF91CF91DA
S11306D0FF90EF90DF90CF900895CF93DF931F9218
S11306E0CDB7DEB7898380919E00882391F4000002
S11306F08BE290E0FC018081882F90E08072992742
S1130700892BB1F38CE290E02981FC01208381E004
S113071006C08CE290E02981FC01208381E00F90E7
S1130720DF91CF910895CF93DF93CDB7DEB78CE2FD
S113073090E0FC018081DF91CF9108955058BB2750
S1130740AA270E94B6030C9400050E94F20438F014
S11307500E94F90420F039F49F3F19F426F40C9414
S1130760EF040EF4E095E7FB0C94E904E92F0E94F2
S1130770110558F3BA17620773078407950720F029
S113078079F4A6F50C9433050EF4E0950B2EBA2FEC
S1130790A02D0B01B90190010C01CA01A001112483
S11307A0FF27591B99F0593F50F4503E68F11A162F
S11307B0F040A22F232F342F4427585FF3CF4695C0
S11307C037952795A795F0405395C9F77EF41F16E2
S11307D0BA0B620B730B840BBAF09150A1F0FF0FAC
S11307E0BB1F661F771F881FC2F70EC0BA0F621F98
S11307F0731F841F48F4879577956795B795F79588
S11308009E3F08F0B0CF9395880F08F09927EE0F1C
S11308109795879508950E941F040C9400050E94E3
S1130820F90458F00E94F20440F029F45F3F29F0E3
S11308300C94E90451110C9434050C94EF040E94B7
S1130840110568F39923B1F3552391F3951B550BC7
S1130850BB27AA2762177307840738F09F5F5F4F8F
S1130860220F331F441FAA1FA9F335D00E2E3AF0CE
S1130870E0E832D091505040E695001CCAF72BD0E6
S1130880FE2F29D0660F771F881FBB1F2617370737
S11308904807AB07B0E809F0BB0B802DBF01FF2769
S11308A093585F4F3AF09E3F510578F00C94E90459
S11308B00C9434055F3FE4F3983ED4F38695779522
S11308C06795B795F7959F5FC9F7880F911D969522
S11308D0879597F90895E1E0660F771F881FBB1F7E
S11308E0621773078407BA0720F0621B730B840B2B
S11308F0BA0BEE1F88F7E09508950E94190588F059
S11309009F5798F0B92F9927B751B0F0E1F0660FCF
S1130910771F881F991F1AF0BA95C9F714C0B13010
S113092091F00E943305B1E008950C943305672FCC
S1130930782F8827B85F39F0B93FCCF3869577953F
S11309406795B395D9F73EF4909580957095619528
S11309507F4F8F4F9F4F0895E89409C097FB3EF453
S113096090958095709561957F4F8F4F9F4F9923F8
S1130970A9F0F92F96E9BB279395F6958795779576
S11309806795B795F111F8CFFAF4BB0F11F460FF36
S11309901BC06F5F7F4F8F4F9F4F16C0882311F08E
S11309A096E911C0772321F09EE8872F762F05C0A2
S11309B0662371F096E8862F70E060E02AF09A953D
S11309C0660F771F881FDAF7880F9695879597F932
S11309D0089597F99F6780E870E060E008959FEFBD
S11309E080EC089500240A941616170618060906C2
S11309F0089500240A941216130614060506089591
S1130A00092E0394000C11F4882352F0BB0F40F418
S1130A10BF2B11F460FF04C06F5F7F4F8F4F9F4F58
S1130A20089557FD9058440F551F59F05F3F71F0DA
S1130A304795880F97FB991F61F09F3F79F0879541
S1130A400895121613061406551FF2CF4695F1DFCA
S1130A5008C0161617061806991FF1CF869571055A
S1130A60610508940895E894BB2766277727CB018E
S1130A7097F908950E944D050C9400050E94F20414
S1130A8038F00E94F90420F0952311F00C94E90445
S1130A900C94EF0411240C9434050E94110570F396
S1130AA0959FC1F3950F50E0551F629FF001729F0F
S1130AB0BB27F00DB11D639FAA27F00DB11DAA1F1E
S1130AC0649F6627B00DA11D661F829F2227B00D6B
S1130AD0A11D621F739FB00DA11D621F839FA00DF6
S1130AE0611D221F749F3327A00D611D231F849F46
S1130AF0600D211D822F762F6A2F11249F5750409D
S1130B009AF0F1F088234AF0EE0FFF1FBB1F661F17
S1130B10771F881F91505040A9F79E3F510580F0E0
S1130B200C94E9040C9434055F3FE4F3983ED4F349
S1130B30869577956795B795F795E7959F5FC1F784
S1130B40FE2B880F911D9695879597F90895F89433
S1050B50FFCFD1
S1110B5201802500000300000100127A00005B
S9030000FC
